{
  "contractName": "Aadhaar",
  "abi": [
    {
      "anonymous": false,
      "inputs": [
        {
          "indexed": false,
          "internalType": "string",
          "name": "field",
          "type": "string"
        },
        {
          "indexed": false,
          "internalType": "address",
          "name": "company",
          "type": "address"
        },
        {
          "indexed": true,
          "internalType": "address",
          "name": "user",
          "type": "address"
        }
      ],
      "name": "userNotification",
      "type": "event"
    },
    {
      "inputs": [
        {
          "internalType": "address",
          "name": "",
          "type": "address"
        }
      ],
      "name": "aadhaarMapping",
      "outputs": [
        {
          "internalType": "string",
          "name": "name",
          "type": "string"
        },
        {
          "internalType": "string",
          "name": "DOB",
          "type": "string"
        },
        {
          "internalType": "string",
          "name": "HomeAddress",
          "type": "string"
        },
        {
          "internalType": "string",
          "name": "gender",
          "type": "string"
        }
      ],
      "stateMutability": "view",
      "type": "function"
    },
    {
      "inputs": [
        {
          "internalType": "address",
          "name": "",
          "type": "address"
        },
        {
          "internalType": "uint256",
          "name": "",
          "type": "uint256"
        }
      ],
      "name": "accessMappingDOB",
      "outputs": [
        {
          "internalType": "address",
          "name": "",
          "type": "address"
        }
      ],
      "stateMutability": "view",
      "type": "function"
    },
    {
      "inputs": [
        {
          "internalType": "address",
          "name": "",
          "type": "address"
        },
        {
          "internalType": "uint256",
          "name": "",
          "type": "uint256"
        }
      ],
      "name": "accessMappingGender",
      "outputs": [
        {
          "internalType": "address",
          "name": "",
          "type": "address"
        }
      ],
      "stateMutability": "view",
      "type": "function"
    },
    {
      "inputs": [
        {
          "internalType": "address",
          "name": "",
          "type": "address"
        },
        {
          "internalType": "uint256",
          "name": "",
          "type": "uint256"
        }
      ],
      "name": "accessMappingHomeAddress",
      "outputs": [
        {
          "internalType": "address",
          "name": "",
          "type": "address"
        }
      ],
      "stateMutability": "view",
      "type": "function"
    },
    {
      "inputs": [
        {
          "internalType": "address",
          "name": "",
          "type": "address"
        },
        {
          "internalType": "uint256",
          "name": "",
          "type": "uint256"
        }
      ],
      "name": "accessMappingName",
      "outputs": [
        {
          "internalType": "address",
          "name": "",
          "type": "address"
        }
      ],
      "stateMutability": "view",
      "type": "function"
    },
    {
      "inputs": [
        {
          "internalType": "address",
          "name": "userAddress",
          "type": "address"
        }
      ],
      "name": "requestAccessName",
      "outputs": [],
      "stateMutability": "nonpayable",
      "type": "function"
    },
    {
      "inputs": [
        {
          "internalType": "address",
          "name": "userAddress",
          "type": "address"
        }
      ],
      "name": "grantAccessName",
      "outputs": [],
      "stateMutability": "nonpayable",
      "type": "function"
    },
    {
      "inputs": [
        {
          "internalType": "address",
          "name": "userAddress",
          "type": "address"
        }
      ],
      "name": "requestAccessDOB",
      "outputs": [],
      "stateMutability": "nonpayable",
      "type": "function"
    },
    {
      "inputs": [
        {
          "internalType": "address",
          "name": "userAddress",
          "type": "address"
        }
      ],
      "name": "grantAccessDOB",
      "outputs": [],
      "stateMutability": "nonpayable",
      "type": "function"
    },
    {
      "inputs": [
        {
          "internalType": "address",
          "name": "userAddress",
          "type": "address"
        }
      ],
      "name": "requestAccessHomeAddress",
      "outputs": [],
      "stateMutability": "nonpayable",
      "type": "function"
    },
    {
      "inputs": [
        {
          "internalType": "address",
          "name": "userAddress",
          "type": "address"
        }
      ],
      "name": "grantAccessHomeAddress",
      "outputs": [],
      "stateMutability": "nonpayable",
      "type": "function"
    },
    {
      "inputs": [
        {
          "internalType": "address",
          "name": "userAddress",
          "type": "address"
        }
      ],
      "name": "requestAccessGender",
      "outputs": [],
      "stateMutability": "nonpayable",
      "type": "function"
    },
    {
      "inputs": [
        {
          "internalType": "address",
          "name": "userAddress",
          "type": "address"
        }
      ],
      "name": "grantAccessGender",
      "outputs": [],
      "stateMutability": "nonpayable",
      "type": "function"
    },
    {
      "inputs": [
        {
          "internalType": "string",
          "name": "_name",
          "type": "string"
        },
        {
          "internalType": "string",
          "name": "_DOB",
          "type": "string"
        },
        {
          "internalType": "string",
          "name": "_homeAddress",
          "type": "string"
        },
        {
          "internalType": "string",
          "name": "_gender",
          "type": "string"
        }
      ],
      "name": "setUserAadhaar",
      "outputs": [],
      "stateMutability": "nonpayable",
      "type": "function"
    }
  ],
  "bytecode": "0x608060405234801561000f575f80fd5b506116348061001d5f395ff3fe608060405234801561000f575f80fd5b50600436106100e8575f3560e01c8063a6cce62b1161008a578063be9d927e11610064578063be9d927e14610257578063c5247f2214610273578063c6ab9a3a146102a3578063d4ff3713146102bf576100e8565b8063a6cce62b146101ef578063aa1298d51461020b578063acafa7a51461023b576100e8565b8063686b1a70116100c6578063686b1a701461016b5780636ad0e0561461018757806383a4bb7c146101a35780639e93f62f146101bf576100e8565b806332c733b2146100ec57806339f449fd1461011f578063640022a81461014f575b5f80fd5b61010660048036038101906101019190610ca7565b6102db565b6040516101169493929190610d5c565b60405180910390f35b61013960048036038101906101349190610dee565b61051e565b6040516101469190610e3b565b60405180910390f35b61016960048036038101906101649190610ca7565b610566565b005b61018560048036038101906101809190610ca7565b6105b7565b005b6101a1600480360381019061019c9190610ca7565b610655565b005b6101bd60048036038101906101b89190610f80565b6106a6565b005b6101d960048036038101906101d49190610dee565b610762565b6040516101e69190610e3b565b60405180910390f35b61020960048036038101906102049190610ca7565b6107aa565b005b61022560048036038101906102209190610dee565b610848565b6040516102329190610e3b565b60405180910390f35b61025560048036038101906102509190610ca7565b610890565b005b610271600480360381019061026c9190610ca7565b610ab4565b005b61028d60048036038101906102889190610dee565b610b05565b60405161029a9190610e3b565b60405180910390f35b6102bd60048036038101906102b89190610ca7565b610b4d565b005b6102d960048036038101906102d49190610ca7565b610b9e565b005b5f602052805f5260405f205f91509050805f0180546102f990611081565b80601f016020809104026020016040519081016040528092919081815260200182805461032590611081565b80156103705780601f1061034757610100808354040283529160200191610370565b820191905f5260205f20905b81548152906001019060200180831161035357829003601f168201915b50505050509080600101805461038590611081565b80601f01602080910402602001604051908101604052809291908181526020018280546103b190611081565b80156103fc5780601f106103d3576101008083540402835291602001916103fc565b820191905f5260205f20905b8154815290600101906020018083116103df57829003601f168201915b50505050509080600201805461041190611081565b80601f016020809104026020016040519081016040528092919081815260200182805461043d90611081565b80156104885780601f1061045f57610100808354040283529160200191610488565b820191905f5260205f20905b81548152906001019060200180831161046b57829003601f168201915b50505050509080600301805461049d90611081565b80601f01602080910402602001604051908101604052809291908181526020018280546104c990611081565b80156105145780601f106104eb57610100808354040283529160200191610514565b820191905f5260205f20905b8154815290600101906020018083116104f757829003601f168201915b5050505050905084565b6003602052815f5260405f208181548110610537575f80fd5b905f5260205f20015f915091509054906101000a900473ffffffffffffffffffffffffffffffffffffffff1681565b8073ffffffffffffffffffffffffffffffffffffffff167f5a604d3e02fef07e6c137674ec7521e80d8c832e55ba60c409d503b85ef2fb04336040516105ac91906110fb565b60405180910390a250565b60035f8273ffffffffffffffffffffffffffffffffffffffff1673ffffffffffffffffffffffffffffffffffffffff1681526020019081526020015f2033908060018154018082558091505060019003905f5260205f20015f9091909190916101000a81548173ffffffffffffffffffffffffffffffffffffffff021916908373ffffffffffffffffffffffffffffffffffffffff16021790555050565b8073ffffffffffffffffffffffffffffffffffffffff167f5a604d3e02fef07e6c137674ec7521e80d8c832e55ba60c409d503b85ef2fb043360405161069b9190611171565b60405180910390a250565b6040518060800160405280858152602001848152602001838152602001828152505f803373ffffffffffffffffffffffffffffffffffffffff1673ffffffffffffffffffffffffffffffffffffffff1681526020019081526020015f205f820151815f019081610716919061133a565b50602082015181600101908161072c919061133a565b506040820151816002019081610742919061133a565b506060820151816003019081610758919061133a565b5090505050505050565b6004602052815f5260405f20818154811061077b575f80fd5b905f5260205f20015f915091509054906101000a900473ffffffffffffffffffffffffffffffffffffffff1681565b60025f8273ffffffffffffffffffffffffffffffffffffffff1673ffffffffffffffffffffffffffffffffffffffff1681526020019081526020015f2033908060018154018082558091505060019003905f5260205f20015f9091909190916101000a81548173ffffffffffffffffffffffffffffffffffffffff021916908373ffffffffffffffffffffffffffffffffffffffff16021790555050565b6002602052815f5260405f208181548110610861575f80fd5b905f5260205f20015f915091509054906101000a900473ffffffffffffffffffffffffffffffffffffffff1681565b3373ffffffffffffffffffffffffffffffffffffffff168173ffffffffffffffffffffffffffffffffffffffff16146108fe576040517f08c379a00000000000000000000000000000000000000000000000000000000081526004016108f590611453565b60405180910390fd5b5f805b60015f8473ffffffffffffffffffffffffffffffffffffffff1673ffffffffffffffffffffffffffffffffffffffff1681526020019081526020015f2080549050811015610a0e573273ffffffffffffffffffffffffffffffffffffffff1660015f8573ffffffffffffffffffffffffffffffffffffffff1673ffffffffffffffffffffffffffffffffffffffff1681526020019081526020015f2082815481106109af576109ae611471565b5b905f5260205f20015f9054906101000a900473ffffffffffffffffffffffffffffffffffffffff1673ffffffffffffffffffffffffffffffffffffffff16036109fb5760019150610a0e565b8080610a06906114cb565b915050610901565b5080610ab05760015f8373ffffffffffffffffffffffffffffffffffffffff1673ffffffffffffffffffffffffffffffffffffffff1681526020019081526020015f2032908060018154018082558091505060019003905f5260205f20015f9091909190916101000a81548173ffffffffffffffffffffffffffffffffffffffff021916908373ffffffffffffffffffffffffffffffffffffffff1602179055505b5050565b8073ffffffffffffffffffffffffffffffffffffffff167f5a604d3e02fef07e6c137674ec7521e80d8c832e55ba60c409d503b85ef2fb0433604051610afa919061155c565b60405180910390a250565b6001602052815f5260405f208181548110610b1e575f80fd5b905f5260205f20015f915091509054906101000a900473ffffffffffffffffffffffffffffffffffffffff1681565b8073ffffffffffffffffffffffffffffffffffffffff167f5a604d3e02fef07e6c137674ec7521e80d8c832e55ba60c409d503b85ef2fb0433604051610b9391906115d2565b60405180910390a250565b60045f8273ffffffffffffffffffffffffffffffffffffffff1673ffffffffffffffffffffffffffffffffffffffff1681526020019081526020015f2033908060018154018082558091505060019003905f5260205f20015f9091909190916101000a81548173ffffffffffffffffffffffffffffffffffffffff021916908373ffffffffffffffffffffffffffffffffffffffff16021790555050565b5f604051905090565b5f80fd5b5f80fd5b5f73ffffffffffffffffffffffffffffffffffffffff82169050919050565b5f610c7682610c4d565b9050919050565b610c8681610c6c565b8114610c90575f80fd5b50565b5f81359050610ca181610c7d565b92915050565b5f60208284031215610cbc57610cbb610c45565b5b5f610cc984828501610c93565b91505092915050565b5f81519050919050565b5f82825260208201905092915050565b5f5b83811015610d09578082015181840152602081019050610cee565b5f8484015250505050565b5f601f19601f8301169050919050565b5f610d2e82610cd2565b610d388185610cdc565b9350610d48818560208601610cec565b610d5181610d14565b840191505092915050565b5f6080820190508181035f830152610d748187610d24565b90508181036020830152610d888186610d24565b90508181036040830152610d9c8185610d24565b90508181036060830152610db08184610d24565b905095945050505050565b5f819050919050565b610dcd81610dbb565b8114610dd7575f80fd5b50565b5f81359050610de881610dc4565b92915050565b5f8060408385031215610e0457610e03610c45565b5b5f610e1185828601610c93565b9250506020610e2285828601610dda565b9150509250929050565b610e3581610c6c565b82525050565b5f602082019050610e4e5f830184610e2c565b92915050565b5f80fd5b5f80fd5b7f4e487b71000000000000000000000000000000000000000000000000000000005f52604160045260245ffd5b610e9282610d14565b810181811067ffffffffffffffff82111715610eb157610eb0610e5c565b5b80604052505050565b5f610ec3610c3c565b9050610ecf8282610e89565b919050565b5f67ffffffffffffffff821115610eee57610eed610e5c565b5b610ef782610d14565b9050602081019050919050565b828183375f83830152505050565b5f610f24610f1f84610ed4565b610eba565b905082815260208101848484011115610f4057610f3f610e58565b5b610f4b848285610f04565b509392505050565b5f82601f830112610f6757610f66610e54565b5b8135610f77848260208601610f12565b91505092915050565b5f805f8060808587031215610f9857610f97610c45565b5b5f85013567ffffffffffffffff811115610fb557610fb4610c49565b5b610fc187828801610f53565b945050602085013567ffffffffffffffff811115610fe257610fe1610c49565b5b610fee87828801610f53565b935050604085013567ffffffffffffffff81111561100f5761100e610c49565b5b61101b87828801610f53565b925050606085013567ffffffffffffffff81111561103c5761103b610c49565b5b61104887828801610f53565b91505092959194509250565b7f4e487b71000000000000000000000000000000000000000000000000000000005f52602260045260245ffd5b5f600282049050600182168061109857607f821691505b6020821081036110ab576110aa611054565b5b50919050565b7f6e616d65000000000000000000000000000000000000000000000000000000005f82015250565b5f6110e5600483610cdc565b91506110f0826110b1565b602082019050919050565b5f6040820190508181035f830152611112816110d9565b90506111216020830184610e2c565b92915050565b7f444f4200000000000000000000000000000000000000000000000000000000005f82015250565b5f61115b600383610cdc565b915061116682611127565b602082019050919050565b5f6040820190508181035f8301526111888161114f565b90506111976020830184610e2c565b92915050565b5f819050815f5260205f209050919050565b5f6020601f8301049050919050565b5f82821b905092915050565b5f600883026111f97fffffffffffffffffffffffffffffffffffffffffffffffffffffffffffffffff826111be565b61120386836111be565b95508019841693508086168417925050509392505050565b5f819050919050565b5f61123e61123961123484610dbb565b61121b565b610dbb565b9050919050565b5f819050919050565b61125783611224565b61126b61126382611245565b8484546111ca565b825550505050565b5f90565b61127f611273565b61128a81848461124e565b505050565b5b818110156112ad576112a25f82611277565b600181019050611290565b5050565b601f8211156112f2576112c38161119d565b6112cc846111af565b810160208510156112db578190505b6112ef6112e7856111af565b83018261128f565b50505b505050565b5f82821c905092915050565b5f6113125f19846008026112f7565b1980831691505092915050565b5f61132a8383611303565b9150826002028217905092915050565b61134382610cd2565b67ffffffffffffffff81111561135c5761135b610e5c565b5b6113668254611081565b6113718282856112b1565b5f60209050601f8311600181146113a2575f8415611390578287015190505b61139a858261131f565b865550611401565b601f1984166113b08661119d565b5f5b828110156113d7578489015182556001820191506020850194506020810190506113b2565b868310156113f457848901516113f0601f891682611303565b8355505b6001600288020188555050505b505050505050565b7f4f6e6c792074686520757365722063616e206772616e74206163636573732e005f82015250565b5f61143d601f83610cdc565b915061144882611409565b602082019050919050565b5f6020820190508181035f83015261146a81611431565b9050919050565b7f4e487b71000000000000000000000000000000000000000000000000000000005f52603260045260245ffd5b7f4e487b71000000000000000000000000000000000000000000000000000000005f52601160045260245ffd5b5f6114d582610dbb565b91507fffffffffffffffffffffffffffffffffffffffffffffffffffffffffffffffff82036115075761150661149e565b5b600182019050919050565b7f486f6d65416464726573730000000000000000000000000000000000000000005f82015250565b5f611546600b83610cdc565b915061155182611512565b602082019050919050565b5f6040820190508181035f8301526115738161153a565b90506115826020830184610e2c565b92915050565b7f47656e64657200000000000000000000000000000000000000000000000000005f82015250565b5f6115bc600683610cdc565b91506115c782611588565b602082019050919050565b5f6040820190508181035f8301526115e9816115b0565b90506115f86020830184610e2c565b9291505056fea264697066735822122061b30e50a8eb83a6db0ceee9a1aab8449bd295a5a1898a6e4e4b998e4236f20864736f6c63430008150033",
  "immutableReferences": {},
  "source": "// SPDX-License-Identifier: MIT\r\n\r\npragma solidity ^0.8.19;\r\n\r\ncontract Aadhaar {\r\n\r\n    event userNotification(\r\n        string field,\r\n        address company,\r\n        address indexed user\r\n    );\r\n    \r\n\r\n    // struct to store user aadhar\r\n    struct User_Aadhaar {\r\n        string name; \r\n        string DOB;  \r\n        string HomeAddress; \r\n        string gender; \r\n    }\r\n\r\n    mapping(address => User_Aadhaar) public aadhaarMapping; // mapping which maps user_address to his struct Aadhar\r\n\r\n    mapping(address => address[]) public accessMappingName; // mapping whihc maps user_address to the list of address which can access the user data. Used for the access modifiier\r\n    mapping(address => address[]) public accessMappingDOB; \r\n    mapping(address => address[]) public accessMappingHomeAddress; \r\n    mapping(address => address[]) public accessMappingGender; \r\n\r\n\r\n    function requestAccessName(address userAddress) public { // function used by company to request access\r\n\r\n      emit userNotification(\"name\", msg.sender, userAddress);\r\n    }\r\n\r\n    \r\n    function grantAccessName(address userAddress) public {\r\n    require(userAddress == msg.sender, \"Only the user can grant access.\");\r\n    bool isAlreadyGranted = false;\r\n    for (uint i = 0; i < accessMappingName[userAddress].length; i++) {\r\n        if (accessMappingName[userAddress][i] == tx.origin) {\r\n            isAlreadyGranted = true;\r\n            break;\r\n        }\r\n    }\r\n    if (!isAlreadyGranted) {\r\n        accessMappingName[userAddress].push(tx.origin);\r\n    }\r\n    }\r\n\r\n\r\n    function requestAccessDOB(address userAddress) public { // function used by company to request access\r\n      emit userNotification(\"DOB\", msg.sender, userAddress);\r\n    }\r\n\r\n    function grantAccessDOB(address userAddress) public { \r\n      accessMappingDOB[userAddress].push(msg.sender);\r\n\r\n    }\r\n    function requestAccessHomeAddress(address userAddress) public { // function used by company to request access\r\n        emit userNotification(\"HomeAddress\", msg.sender, userAddress);\r\n    }\r\n    function grantAccessHomeAddress(address userAddress) public {\r\n      accessMappingHomeAddress[userAddress].push(msg.sender);\r\n\r\n    }\r\n    function requestAccessGender(address userAddress) public { // function used by company to request access\r\n        emit userNotification(\"Gender\", msg.sender, userAddress);\r\n    }\r\n     function grantAccessGender(address userAddress) public { \r\n      accessMappingGender[userAddress].push(msg.sender);\r\n\r\n    }\r\n\r\n    function setUserAadhaar(string memory _name, string memory _DOB, string memory _homeAddress, string memory _gender) public {\r\n    aadhaarMapping[msg.sender] = User_Aadhaar(_name, _DOB, _homeAddress, _gender);\r\n    }\r\n\r\n}",
  "sourcePath": "C:\\Users\\Devangana\\Desktop\\db\\VESIT\\sem7\\PII_BC\\contracts\\Aadhaar.sol",
  "compiler": {
    "name": "solc",
    "version": "0.8.21+commit.d9974bed.Emscripten.clang"
  },
  "schemaVersion": "3.4.16",
  "updatedAt": "2024-09-22T20:35:15.741Z",
  "devdoc": {
    "kind": "dev",
    "methods": {},
    "version": 1
  },
  "userdoc": {
    "kind": "user",
    "methods": {},
    "version": 1
  }
}