{
  "contractName": "Aadhaar",
  "abi": [
    {
      "anonymous": false,
      "inputs": [
        {
          "indexed": false,
          "internalType": "string",
          "name": "field",
          "type": "string"
        },
        {
          "indexed": false,
          "internalType": "address",
          "name": "company",
          "type": "address"
        },
        {
          "indexed": true,
          "internalType": "address",
          "name": "user",
          "type": "address"
        }
      ],
      "name": "userNotification",
      "type": "event"
    },
    {
      "inputs": [
        {
          "internalType": "address",
          "name": "",
          "type": "address"
        }
      ],
      "name": "aadhaarMapping",
      "outputs": [
        {
          "internalType": "string",
          "name": "name",
          "type": "string"
        },
        {
          "internalType": "string",
          "name": "DOB",
          "type": "string"
        },
        {
          "internalType": "string",
          "name": "HomeAddress",
          "type": "string"
        },
        {
          "internalType": "string",
          "name": "gender",
          "type": "string"
        }
      ],
      "stateMutability": "view",
      "type": "function"
    },
    {
      "inputs": [
        {
          "internalType": "address",
          "name": "",
          "type": "address"
        },
        {
          "internalType": "uint256",
          "name": "",
          "type": "uint256"
        }
      ],
      "name": "accessMappingDOB",
      "outputs": [
        {
          "internalType": "address",
          "name": "",
          "type": "address"
        }
      ],
      "stateMutability": "view",
      "type": "function"
    },
    {
      "inputs": [
        {
          "internalType": "address",
          "name": "",
          "type": "address"
        },
        {
          "internalType": "uint256",
          "name": "",
          "type": "uint256"
        }
      ],
      "name": "accessMappingGender",
      "outputs": [
        {
          "internalType": "address",
          "name": "",
          "type": "address"
        }
      ],
      "stateMutability": "view",
      "type": "function"
    },
    {
      "inputs": [
        {
          "internalType": "address",
          "name": "",
          "type": "address"
        },
        {
          "internalType": "uint256",
          "name": "",
          "type": "uint256"
        }
      ],
      "name": "accessMappingHomeAddress",
      "outputs": [
        {
          "internalType": "address",
          "name": "",
          "type": "address"
        }
      ],
      "stateMutability": "view",
      "type": "function"
    },
    {
      "inputs": [
        {
          "internalType": "address",
          "name": "",
          "type": "address"
        },
        {
          "internalType": "uint256",
          "name": "",
          "type": "uint256"
        }
      ],
      "name": "accessMappingName",
      "outputs": [
        {
          "internalType": "address",
          "name": "",
          "type": "address"
        }
      ],
      "stateMutability": "view",
      "type": "function"
    },
    {
      "inputs": [
        {
          "internalType": "address",
          "name": "userAddress",
          "type": "address"
        }
      ],
      "name": "requestAccessName",
      "outputs": [],
      "stateMutability": "nonpayable",
      "type": "function"
    },
    {
      "inputs": [
        {
          "internalType": "address",
          "name": "userAddress",
          "type": "address"
        }
      ],
      "name": "grantAccessName",
      "outputs": [],
      "stateMutability": "nonpayable",
      "type": "function"
    },
    {
      "inputs": [
        {
          "internalType": "address",
          "name": "userAddress",
          "type": "address"
        }
      ],
      "name": "requestAccessDOB",
      "outputs": [],
      "stateMutability": "nonpayable",
      "type": "function"
    },
    {
      "inputs": [
        {
          "internalType": "address",
          "name": "userAddress",
          "type": "address"
        }
      ],
      "name": "requestAccessHomeAddress",
      "outputs": [],
      "stateMutability": "nonpayable",
      "type": "function"
    },
    {
      "inputs": [
        {
          "internalType": "address",
          "name": "userAddress",
          "type": "address"
        }
      ],
      "name": "requestAccessGender",
      "outputs": [],
      "stateMutability": "nonpayable",
      "type": "function"
    },
    {
      "inputs": [
        {
          "internalType": "address",
          "name": "userAddress",
          "type": "address"
        }
      ],
      "name": "grantAccessDOB",
      "outputs": [],
      "stateMutability": "nonpayable",
      "type": "function"
    },
    {
      "inputs": [
        {
          "internalType": "address",
          "name": "userAddress",
          "type": "address"
        }
      ],
      "name": "grantAccessHomeAddress",
      "outputs": [],
      "stateMutability": "nonpayable",
      "type": "function"
    },
    {
      "inputs": [
        {
          "internalType": "address",
          "name": "userAddress",
          "type": "address"
        }
      ],
      "name": "grantAccessGender",
      "outputs": [],
      "stateMutability": "nonpayable",
      "type": "function"
    },
    {
      "inputs": [
        {
          "internalType": "string",
          "name": "_name",
          "type": "string"
        },
        {
          "internalType": "string",
          "name": "_DOB",
          "type": "string"
        },
        {
          "internalType": "string",
          "name": "_homeAddress",
          "type": "string"
        },
        {
          "internalType": "string",
          "name": "_gender",
          "type": "string"
        }
      ],
      "name": "setUserAadhaar",
      "outputs": [],
      "stateMutability": "nonpayable",
      "type": "function"
    }
  ],
  "bytecode": "0x608060405234801561000f575f80fd5b50611ac68061001d5f395ff3fe608060405234801561000f575f80fd5b50600436106100e8575f3560e01c8063a6cce62b1161008a578063be9d927e11610064578063be9d927e14610257578063c5247f2214610273578063c6ab9a3a146102a3578063d4ff3713146102bf576100e8565b8063a6cce62b146101ef578063aa1298d51461020b578063acafa7a51461023b576100e8565b8063686b1a70116100c6578063686b1a701461016b5780636ad0e0561461018757806383a4bb7c146101a35780639e93f62f146101bf576100e8565b806332c733b2146100ec57806339f449fd1461011f578063640022a81461014f575b5f80fd5b61010660048036038101906101019190611139565b6102db565b60405161011694939291906111ee565b60405180910390f35b61013960048036038101906101349190611280565b61051e565b60405161014691906112cd565b60405180910390f35b61016960048036038101906101649190611139565b610566565b005b61018560048036038101906101809190611139565b6105b7565b005b6101a1600480360381019061019c9190611139565b6107db565b005b6101bd60048036038101906101b89190611412565b61082c565b005b6101d960048036038101906101d49190611280565b6108e8565b6040516101e691906112cd565b60405180910390f35b61020960048036038101906102049190611139565b610930565b005b61022560048036038101906102209190611280565b610b54565b60405161023291906112cd565b60405180910390f35b61025560048036038101906102509190611139565b610b9c565b005b610271600480360381019061026c9190611139565b610dc0565b005b61028d60048036038101906102889190611280565b610e11565b60405161029a91906112cd565b60405180910390f35b6102bd60048036038101906102b89190611139565b610e59565b005b6102d960048036038101906102d49190611139565b610eaa565b005b5f602052805f5260405f205f91509050805f0180546102f990611513565b80601f016020809104026020016040519081016040528092919081815260200182805461032590611513565b80156103705780601f1061034757610100808354040283529160200191610370565b820191905f5260205f20905b81548152906001019060200180831161035357829003601f168201915b50505050509080600101805461038590611513565b80601f01602080910402602001604051908101604052809291908181526020018280546103b190611513565b80156103fc5780601f106103d3576101008083540402835291602001916103fc565b820191905f5260205f20905b8154815290600101906020018083116103df57829003601f168201915b50505050509080600201805461041190611513565b80601f016020809104026020016040519081016040528092919081815260200182805461043d90611513565b80156104885780601f1061045f57610100808354040283529160200191610488565b820191905f5260205f20905b81548152906001019060200180831161046b57829003601f168201915b50505050509080600301805461049d90611513565b80601f01602080910402602001604051908101604052809291908181526020018280546104c990611513565b80156105145780601f106104eb57610100808354040283529160200191610514565b820191905f5260205f20905b8154815290600101906020018083116104f757829003601f168201915b5050505050905084565b6003602052815f5260405f208181548110610537575f80fd5b905f5260205f20015f915091509054906101000a900473ffffffffffffffffffffffffffffffffffffffff1681565b8073ffffffffffffffffffffffffffffffffffffffff167f5a604d3e02fef07e6c137674ec7521e80d8c832e55ba60c409d503b85ef2fb04336040516105ac919061158d565b60405180910390a250565b3373ffffffffffffffffffffffffffffffffffffffff168173ffffffffffffffffffffffffffffffffffffffff1614610625576040517f08c379a000000000000000000000000000000000000000000000000000000000815260040161061c90611603565b60405180910390fd5b5f805b60035f8473ffffffffffffffffffffffffffffffffffffffff1673ffffffffffffffffffffffffffffffffffffffff1681526020019081526020015f2080549050811015610735573373ffffffffffffffffffffffffffffffffffffffff1660035f8573ffffffffffffffffffffffffffffffffffffffff1673ffffffffffffffffffffffffffffffffffffffff1681526020019081526020015f2082815481106106d6576106d5611621565b5b905f5260205f20015f9054906101000a900473ffffffffffffffffffffffffffffffffffffffff1673ffffffffffffffffffffffffffffffffffffffff16036107225760019150610735565b808061072d9061167b565b915050610628565b50806107d75760035f8373ffffffffffffffffffffffffffffffffffffffff1673ffffffffffffffffffffffffffffffffffffffff1681526020019081526020015f2033908060018154018082558091505060019003905f5260205f20015f9091909190916101000a81548173ffffffffffffffffffffffffffffffffffffffff021916908373ffffffffffffffffffffffffffffffffffffffff1602179055505b5050565b8073ffffffffffffffffffffffffffffffffffffffff167f5a604d3e02fef07e6c137674ec7521e80d8c832e55ba60c409d503b85ef2fb0433604051610821919061170c565b60405180910390a250565b6040518060800160405280858152602001848152602001838152602001828152505f803373ffffffffffffffffffffffffffffffffffffffff1673ffffffffffffffffffffffffffffffffffffffff1681526020019081526020015f205f820151815f01908161089c91906118d5565b5060208201518160010190816108b291906118d5565b5060408201518160020190816108c891906118d5565b5060608201518160030190816108de91906118d5565b5090505050505050565b6004602052815f5260405f208181548110610901575f80fd5b905f5260205f20015f915091509054906101000a900473ffffffffffffffffffffffffffffffffffffffff1681565b3373ffffffffffffffffffffffffffffffffffffffff168173ffffffffffffffffffffffffffffffffffffffff161461099e576040517f08c379a000000000000000000000000000000000000000000000000000000000815260040161099590611603565b60405180910390fd5b5f805b60025f8473ffffffffffffffffffffffffffffffffffffffff1673ffffffffffffffffffffffffffffffffffffffff1681526020019081526020015f2080549050811015610aae573373ffffffffffffffffffffffffffffffffffffffff1660025f8573ffffffffffffffffffffffffffffffffffffffff1673ffffffffffffffffffffffffffffffffffffffff1681526020019081526020015f208281548110610a4f57610a4e611621565b5b905f5260205f20015f9054906101000a900473ffffffffffffffffffffffffffffffffffffffff1673ffffffffffffffffffffffffffffffffffffffff1603610a9b5760019150610aae565b8080610aa69061167b565b9150506109a1565b5080610b505760025f8373ffffffffffffffffffffffffffffffffffffffff1673ffffffffffffffffffffffffffffffffffffffff1681526020019081526020015f2033908060018154018082558091505060019003905f5260205f20015f9091909190916101000a81548173ffffffffffffffffffffffffffffffffffffffff021916908373ffffffffffffffffffffffffffffffffffffffff1602179055505b5050565b6002602052815f5260405f208181548110610b6d575f80fd5b905f5260205f20015f915091509054906101000a900473ffffffffffffffffffffffffffffffffffffffff1681565b3373ffffffffffffffffffffffffffffffffffffffff168173ffffffffffffffffffffffffffffffffffffffff1614610c0a576040517f08c379a0000000000000000000000000000000000000000000000000000000008152600401610c0190611603565b60405180910390fd5b5f805b60015f8473ffffffffffffffffffffffffffffffffffffffff1673ffffffffffffffffffffffffffffffffffffffff1681526020019081526020015f2080549050811015610d1a573373ffffffffffffffffffffffffffffffffffffffff1660015f8573ffffffffffffffffffffffffffffffffffffffff1673ffffffffffffffffffffffffffffffffffffffff1681526020019081526020015f208281548110610cbb57610cba611621565b5b905f5260205f20015f9054906101000a900473ffffffffffffffffffffffffffffffffffffffff1673ffffffffffffffffffffffffffffffffffffffff1603610d075760019150610d1a565b8080610d129061167b565b915050610c0d565b5080610dbc5760015f8373ffffffffffffffffffffffffffffffffffffffff1673ffffffffffffffffffffffffffffffffffffffff1681526020019081526020015f2033908060018154018082558091505060019003905f5260205f20015f9091909190916101000a81548173ffffffffffffffffffffffffffffffffffffffff021916908373ffffffffffffffffffffffffffffffffffffffff1602179055505b5050565b8073ffffffffffffffffffffffffffffffffffffffff167f5a604d3e02fef07e6c137674ec7521e80d8c832e55ba60c409d503b85ef2fb0433604051610e0691906119ee565b60405180910390a250565b6001602052815f5260405f208181548110610e2a575f80fd5b905f5260205f20015f915091509054906101000a900473ffffffffffffffffffffffffffffffffffffffff1681565b8073ffffffffffffffffffffffffffffffffffffffff167f5a604d3e02fef07e6c137674ec7521e80d8c832e55ba60c409d503b85ef2fb0433604051610e9f9190611a64565b60405180910390a250565b3373ffffffffffffffffffffffffffffffffffffffff168173ffffffffffffffffffffffffffffffffffffffff1614610f18576040517f08c379a0000000000000000000000000000000000000000000000000000000008152600401610f0f90611603565b60405180910390fd5b5f805b60045f8473ffffffffffffffffffffffffffffffffffffffff1673ffffffffffffffffffffffffffffffffffffffff1681526020019081526020015f2080549050811015611028573373ffffffffffffffffffffffffffffffffffffffff1660045f8573ffffffffffffffffffffffffffffffffffffffff1673ffffffffffffffffffffffffffffffffffffffff1681526020019081526020015f208281548110610fc957610fc8611621565b5b905f5260205f20015f9054906101000a900473ffffffffffffffffffffffffffffffffffffffff1673ffffffffffffffffffffffffffffffffffffffff16036110155760019150611028565b80806110209061167b565b915050610f1b565b50806110ca5760045f8373ffffffffffffffffffffffffffffffffffffffff1673ffffffffffffffffffffffffffffffffffffffff1681526020019081526020015f2033908060018154018082558091505060019003905f5260205f20015f9091909190916101000a81548173ffffffffffffffffffffffffffffffffffffffff021916908373ffffffffffffffffffffffffffffffffffffffff1602179055505b5050565b5f604051905090565b5f80fd5b5f80fd5b5f73ffffffffffffffffffffffffffffffffffffffff82169050919050565b5f611108826110df565b9050919050565b611118816110fe565b8114611122575f80fd5b50565b5f813590506111338161110f565b92915050565b5f6020828403121561114e5761114d6110d7565b5b5f61115b84828501611125565b91505092915050565b5f81519050919050565b5f82825260208201905092915050565b5f5b8381101561119b578082015181840152602081019050611180565b5f8484015250505050565b5f601f19601f8301169050919050565b5f6111c082611164565b6111ca818561116e565b93506111da81856020860161117e565b6111e3816111a6565b840191505092915050565b5f6080820190508181035f83015261120681876111b6565b9050818103602083015261121a81866111b6565b9050818103604083015261122e81856111b6565b9050818103606083015261124281846111b6565b905095945050505050565b5f819050919050565b61125f8161124d565b8114611269575f80fd5b50565b5f8135905061127a81611256565b92915050565b5f8060408385031215611296576112956110d7565b5b5f6112a385828601611125565b92505060206112b48582860161126c565b9150509250929050565b6112c7816110fe565b82525050565b5f6020820190506112e05f8301846112be565b92915050565b5f80fd5b5f80fd5b7f4e487b71000000000000000000000000000000000000000000000000000000005f52604160045260245ffd5b611324826111a6565b810181811067ffffffffffffffff82111715611343576113426112ee565b5b80604052505050565b5f6113556110ce565b9050611361828261131b565b919050565b5f67ffffffffffffffff8211156113805761137f6112ee565b5b611389826111a6565b9050602081019050919050565b828183375f83830152505050565b5f6113b66113b184611366565b61134c565b9050828152602081018484840111156113d2576113d16112ea565b5b6113dd848285611396565b509392505050565b5f82601f8301126113f9576113f86112e6565b5b81356114098482602086016113a4565b91505092915050565b5f805f806080858703121561142a576114296110d7565b5b5f85013567ffffffffffffffff811115611447576114466110db565b5b611453878288016113e5565b945050602085013567ffffffffffffffff811115611474576114736110db565b5b611480878288016113e5565b935050604085013567ffffffffffffffff8111156114a1576114a06110db565b5b6114ad878288016113e5565b925050606085013567ffffffffffffffff8111156114ce576114cd6110db565b5b6114da878288016113e5565b91505092959194509250565b7f4e487b71000000000000000000000000000000000000000000000000000000005f52602260045260245ffd5b5f600282049050600182168061152a57607f821691505b60208210810361153d5761153c6114e6565b5b50919050565b7f6e616d65000000000000000000000000000000000000000000000000000000005f82015250565b5f61157760048361116e565b915061158282611543565b602082019050919050565b5f6040820190508181035f8301526115a48161156b565b90506115b360208301846112be565b92915050565b7f4f6e6c792074686520757365722063616e206772616e74206163636573732e005f82015250565b5f6115ed601f8361116e565b91506115f8826115b9565b602082019050919050565b5f6020820190508181035f83015261161a816115e1565b9050919050565b7f4e487b71000000000000000000000000000000000000000000000000000000005f52603260045260245ffd5b7f4e487b71000000000000000000000000000000000000000000000000000000005f52601160045260245ffd5b5f6116858261124d565b91507fffffffffffffffffffffffffffffffffffffffffffffffffffffffffffffffff82036116b7576116b661164e565b5b600182019050919050565b7f444f4200000000000000000000000000000000000000000000000000000000005f82015250565b5f6116f660038361116e565b9150611701826116c2565b602082019050919050565b5f6040820190508181035f830152611723816116ea565b905061173260208301846112be565b92915050565b5f819050815f5260205f209050919050565b5f6020601f8301049050919050565b5f82821b905092915050565b5f600883026117947fffffffffffffffffffffffffffffffffffffffffffffffffffffffffffffffff82611759565b61179e8683611759565b95508019841693508086168417925050509392505050565b5f819050919050565b5f6117d96117d46117cf8461124d565b6117b6565b61124d565b9050919050565b5f819050919050565b6117f2836117bf565b6118066117fe826117e0565b848454611765565b825550505050565b5f90565b61181a61180e565b6118258184846117e9565b505050565b5b818110156118485761183d5f82611812565b60018101905061182b565b5050565b601f82111561188d5761185e81611738565b6118678461174a565b81016020851015611876578190505b61188a6118828561174a565b83018261182a565b50505b505050565b5f82821c905092915050565b5f6118ad5f1984600802611892565b1980831691505092915050565b5f6118c5838361189e565b9150826002028217905092915050565b6118de82611164565b67ffffffffffffffff8111156118f7576118f66112ee565b5b6119018254611513565b61190c82828561184c565b5f60209050601f83116001811461193d575f841561192b578287015190505b61193585826118ba565b86555061199c565b601f19841661194b86611738565b5f5b828110156119725784890151825560018201915060208501945060208101905061194d565b8683101561198f578489015161198b601f89168261189e565b8355505b6001600288020188555050505b505050505050565b7f486f6d65416464726573730000000000000000000000000000000000000000005f82015250565b5f6119d8600b8361116e565b91506119e3826119a4565b602082019050919050565b5f6040820190508181035f830152611a05816119cc565b9050611a1460208301846112be565b92915050565b7f47656e64657200000000000000000000000000000000000000000000000000005f82015250565b5f611a4e60068361116e565b9150611a5982611a1a565b602082019050919050565b5f6040820190508181035f830152611a7b81611a42565b9050611a8a60208301846112be565b9291505056fea2646970667358221220165788b385d7aa9bf18b00191db260e0607dbcb4210e41d5c93bc58ca8af442a64736f6c63430008150033",
  "immutableReferences": {},
  "source": "// SPDX-License-Identifier: MIT\r\npragma solidity ^0.8.19;\r\n\r\ncontract Aadhaar {\r\n\r\n    event userNotification(\r\n        string field,\r\n        address company,\r\n        address indexed user\r\n    );\r\n\r\n    // Struct to store user Aadhaar data\r\n    struct User_Aadhaar {\r\n        string name; \r\n        string DOB;  \r\n        string HomeAddress; \r\n        string gender; \r\n    }\r\n\r\n    // Mapping to store Aadhaar data for each user\r\n    mapping(address => User_Aadhaar) public aadhaarMapping;\r\n\r\n    // Mappings to store access permissions for different fields\r\n    mapping(address => address[]) public accessMappingName;\r\n    mapping(address => address[]) public accessMappingDOB; \r\n    mapping(address => address[]) public accessMappingHomeAddress; \r\n    mapping(address => address[]) public accessMappingGender;\r\n\r\n    // Helper function to check if a company already has access\r\n    function _hasAccess(address[] storage accessList, address company) internal view returns (bool) {\r\n        for (uint i = 0; i < accessList.length; i++) {\r\n            if (accessList[i] == company) {\r\n                return true;\r\n            }\r\n        }\r\n        return false;\r\n    }\r\n\r\n    // Request access to name\r\n    function requestAccessName(address userAddress) public {\r\n        emit userNotification(\"name\", msg.sender, userAddress);\r\n    }\r\n\r\n    // Grant access to name (only the user can grant access)\r\n    // function grantAccessName(address userAddress) public {\r\n    //     require(userAddress == msg.sender, \"Only the user can grant access.\");\r\n    //     if (!_hasAccess(accessMappingName[userAddress], msg.sender)) {\r\n    //         accessMappingName[userAddress].push(msg.sender);\r\n    //     }\r\n    // }\r\n    function grantAccessName(address userAddress) public {\r\n    require(userAddress == msg.sender, \"Only the user can grant access.\");\r\n    bool isAlreadyGranted = false;\r\n    for (uint i = 0; i < accessMappingName[userAddress].length; i++) {\r\n        if (accessMappingName[userAddress][i] == msg.sender) { // Use msg.sender instead of tx.origin\r\n            isAlreadyGranted = true;\r\n            break;\r\n          }\r\n      }\r\n      if (!isAlreadyGranted) {\r\n          accessMappingName[userAddress].push(msg.sender); // Use msg.sender to add the company address\r\n      }\r\n  }\r\n\r\n\r\n    // Request access to DOB\r\n    function requestAccessDOB(address userAddress) public {\r\n        emit userNotification(\"DOB\", msg.sender, userAddress);\r\n    }\r\n\r\n    // Grant access to DOB (only the user can grant access)\r\n    // function grantAccessDOB(address userAddress) public {\r\n    //     require(userAddress == msg.sender, \"Only the user can grant access.\");\r\n    //     if (!_hasAccess(accessMappingDOB[userAddress], msg.sender)) {\r\n    //         accessMappingDOB[userAddress].push(msg.sender);\r\n    //     }\r\n    // }\r\n\r\n    // Request access to home address\r\n    function requestAccessHomeAddress(address userAddress) public {\r\n        emit userNotification(\"HomeAddress\", msg.sender, userAddress);\r\n    }\r\n\r\n    // Grant access to home address (only the user can grant access)\r\n    // function grantAccessHomeAddress(address userAddress) public {\r\n    //     require(userAddress == msg.sender, \"Only the user can grant access.\");\r\n    //     if (!_hasAccess(accessMappingHomeAddress[userAddress], msg.sender)) {\r\n    //         accessMappingHomeAddress[userAddress].push(msg.sender);\r\n    //     }\r\n    // }\r\n\r\n    // Request access to gender\r\n    function requestAccessGender(address userAddress) public {\r\n        emit userNotification(\"Gender\", msg.sender, userAddress);\r\n    }\r\n\r\n    // Grant access to gender (only the user can grant access)\r\n    // function grantAccessGender(address userAddress) public {\r\n    //     require(userAddress == msg.sender, \"Only the user can grant access.\");\r\n    //     if (!_hasAccess(accessMappingGender[userAddress], msg.sender)) {\r\n    //         accessMappingGender[userAddress].push(msg.sender);\r\n    //     }\r\n    // }\r\n\r\n    function grantAccessDOB(address userAddress) public { \r\n    require(userAddress == msg.sender, \"Only the user can grant access.\");\r\n    bool isAlreadyGranted = false;\r\n    for (uint i = 0; i < accessMappingDOB[userAddress].length; i++) {\r\n        if (accessMappingDOB[userAddress][i] == msg.sender) {\r\n            isAlreadyGranted = true;\r\n            break;\r\n        }\r\n    }\r\n    if (!isAlreadyGranted) {\r\n        accessMappingDOB[userAddress].push(msg.sender);\r\n    }\r\n}\r\n\r\nfunction grantAccessHomeAddress(address userAddress) public {\r\n    require(userAddress == msg.sender, \"Only the user can grant access.\");\r\n    bool isAlreadyGranted = false;\r\n    for (uint i = 0; i < accessMappingHomeAddress[userAddress].length; i++) {\r\n        if (accessMappingHomeAddress[userAddress][i] == msg.sender) {\r\n            isAlreadyGranted = true;\r\n            break;\r\n        }\r\n    }\r\n    if (!isAlreadyGranted) {\r\n        accessMappingHomeAddress[userAddress].push(msg.sender);\r\n    }\r\n}\r\n\r\nfunction grantAccessGender(address userAddress) public {\r\n    require(userAddress == msg.sender, \"Only the user can grant access.\");\r\n    bool isAlreadyGranted = false;\r\n    for (uint i = 0; i < accessMappingGender[userAddress].length; i++) {\r\n        if (accessMappingGender[userAddress][i] == msg.sender) {\r\n            isAlreadyGranted = true;\r\n            break;\r\n        }\r\n    }\r\n    if (!isAlreadyGranted) {\r\n        accessMappingGender[userAddress].push(msg.sender);\r\n    }\r\n}\r\n\r\n\r\n    // Set Aadhaar data for a user\r\n    function setUserAadhaar(\r\n        string memory _name, \r\n        string memory _DOB, \r\n        string memory _homeAddress, \r\n        string memory _gender\r\n    ) public {\r\n        aadhaarMapping[msg.sender] = User_Aadhaar(_name, _DOB, _homeAddress, _gender);\r\n    }\r\n}\r\n",
  "sourcePath": "C:\\Users\\Devangana\\Desktop\\db\\VESIT\\sem7\\PII_BC\\contracts\\Aadhaar.sol",
  "compiler": {
    "name": "solc",
    "version": "0.8.21+commit.d9974bed.Emscripten.clang"
  },
  "schemaVersion": "3.4.16",
  "updatedAt": "2024-09-22T20:55:16.402Z",
  "devdoc": {
    "kind": "dev",
    "methods": {},
    "version": 1
  },
  "userdoc": {
    "kind": "user",
    "methods": {},
    "version": 1
  }
}